:020000040000fa
:020000040001f9
:10000000f07f00208d47010033450100bf4e010005
:1000100000000000000000000000000000000000e0
:10002000000000000000000000000000d7580100a0
:100030000000000000000000d7580100ed4e010054
:10004000d7580100d7580100d7580100d7580100f0
:10005000d7580100d7580100d7580100695c01004a
:10006000d7580100d7580100d758010011190100d5
:10007000d7580100d7580100d7580100d7580100c0
:10008000d7580100d7580100d7580100d7580100b0
:10009000d7580100d7580100d7580100d7580100a0
:1000a000d7580100d7580100d7580100d758010090
:020000040000fa
:020000040001f9
:1000b000f8b5c046f8bc08bc9e4670476d470100c5
:1000c000f8b5c046f8bc08bc9e46704745470100dd
:020000040000fa
:020000040001f9
:1000d000f0b5de4657464e464546e0b585b00500cc
:1000e0004378002b00d1fae2836b002b00d1f6e2bb
:1000f000446aa38b9b0505d5238b9b0502d58023e2
:100100009b00a383a38bdb0505d5238bdb0502d5e1
:1001100080235b00a383a38b1b0604d5238b1b06c4
:1001200001d58023a383a38b5b0604d5238b5b06b9
:1001300001d54023a383a38b9b0604d5238b9b0669
:1001400001d52023a383a38bdb070dd5238bdb07ee
:100150000ad50123a383a3820f33a3832383002221
:100160000421686bab6b9847a38bdb060dd5238b03
:10017000db060ad51023a383a3820f3ba38323832b
:1001800000220321686bab6b9847a38b5b0709d5f3
:10019000238b5b0706d50423a38300220721686b0a
:1001a000ab6b9847a38b1b0702d5238b1b0735d45a
:1001b0000823ff33e35cdb065dd50a23ff33e35cf2
:1001c000db0658d56e6cf37902229343f371f37b0f
:1001d0009343f3733768002f47d0296d0632386890
:1001e00005f00afd0823ff331022e254033b3032ae
:1001f000e2543a689179d3791b020b432ad1213317
:100200000722ea5402233b7206337b60bb693360ea
:10021000fb68002b2fd0380098472ce021230022c8
:10022000ea54237b1b079b0f974ad25c3023ea5486
:10023000280050306022002105f0e8fcab6b002b59
:1002400003d000220221686b98478023a372783b79
:10025000a383ade713787f2b03d821230222ea542e
:10026000d0e721230622ea54cce721230122ea54d5
:10027000e7330f32e2540823ff33e35c9b0737d5a3
:100280000a23ff33e35c9b0732d56b6c9e68002e1c
:100290002ed02122aa5c082a1ad0316a002971d1f5
:1002a000327c51b200295ddb21220521a9540022b4
:1002b0003272b2699a60f368002b01d0300098471f
:1002c0000823ff330222e254033b3e32e2540fe0a4
:1002d000002221216a543272b16999607260f36818
:1002e000002b01d0300098470823ff330222e2544c
:1002f0000823ff33e35cdb0700d4a3e00a23ff33ca
:10030000e35cdb0700d49de06b6c98462123eb5c3b
:10031000052b59d043461e68002e74d06f6dbf0464
:10032000bf0c306a73683a189a4201d91f1abfb2db
:10033000296d33689c4660443a0005f05dfc336ae1
:10034000fb1833627268934264d241468988b9428d
:1003500060d882235b004022e2540823ff333f3af7
:10036000e2546fe07f231a4032746b6e9b0b9b0349
:100370006b660823ff330222e2540623ff337e32ea
:10038000e254b5e79f89b94200d88fb2286e7368ee
:10039000591a33689c4661443a0005f02dfc336ad3
:1003a000db1b33626b6e9b0b9b036b666b6ebf0438
:1003b000bf0c1f436f660823ff330222e25406235b
:1003c000ff337e32e25493e743461868002813d087
:1003d000002303722122ab540822ff320121a154d1
:1003e000033a3f31a1544246816911604360c368ba
:1003f000002b27d0984725e021230422ea54e73335
:10040000033ae2541ee021230322ea54e733023a7e
:10041000e25417e093429b415b423372212307224f
:10042000ea540823ff33063ae254033b3f32e254d6
:100430004346b2691a60336a7360f368002b01d0d7
:100440003000984701260123984649e07f22134057
:100450000374ef197b6e9b0b9b037b660823ff33b2
:10046000753a5146ca540623ff337632ca5434e0f3
:10047000019b5f01e7190937ff370a323a700823f9
:10048000ff335146ca5428e0d85d01009b899a4247
:1004900000d893b241688a1a01688c466244e9190f
:1004a0000a66026ad21a02624a6e920b92034a6686
:1004b0004a6e9b049b0c13434b660823ff330a22ae
:1004c0005146ca54019b5f01e7190a37ff370223df
:1004d0003b700623ff337632ca540136032e72d0a6
:1004e000238c9bb20196334141461942f5d07301ea
:1004f000e3180a33ff331b78dbb203937701e31968
:100500009a460823ff335146cb5cdbb20293029b31
:100510001b0712d5039b1b070fd5eb196a331b78fa
:100520009b070ad5eb196a331a7802218a431a709d
:100530000823ff3308225146ca54029b9b07ccd59f
:10054000039b9b07c9d52b004433b2009b589b46a5
:1005500098680028c1d0026a002a97d1037c5ab259
:10056000002a00da72e7002303725b4682699a6010
:10057000c368002b00d098475b469a68002a00d1d8
:1005800076e7106a9b89984200d883b25168081aae
:1005900011688c466044ef193866116ac81a1062f7
:1005a0007a6e920b92037a667a6e9b049b0c1343cd
:1005b0007b660823ff330a225146ca540623ff33c1
:1005c0007632ca5489e7023e0123984621e000238f
:1005d0000372534682691a60036a4360c368002b42
:1005e00000d0984753461b68002b6dd01a687f01d6
:1005f000eb191a6505230822ff3249468b54e71987
:100600000a37ff373b70ff33c73aca540136032e0f
:1006100065d0238c9bb23700334142461a42f5d055
:100620007301e3180a33ff331b78dbb203937301c2
:100630009946a1440823ff334a46d35cdbb20293b8
:10064000029b5b0711d57301eb185a331b789b078c
:1006500006d57301eb185a331a7802218a431a70af
:100660000823ff3304224946ca54029b42461a42d9
:10067000ccd0039b1a42c9d02b004433b2009b5804
:100680009a4618680028c1d07b01eb185b6d9b046b
:100690009b0c026a9a18026241688a4297d25146bc
:1006a000898899420dd803689a187f01ef193a6535
:1006b0000823ff3305224946ca54033b3b32ca5440
:1006c000a4e74346037284e77f01e7190937ff3740
:1006d00005223a700823ff334946ca5496e705b00d
:0c06e0003cbc90469946a246ab46f0bddb
:020000040000fa
:020000040001f9
:1006ec00140c00201c00000000000000000400207e
:1006fc003401000000000000480a002080000000c7
:10070c0000000000080b002030000000000000007a
:10071c00b00d0020500000000100000059520100f3
:10072c00215c0100795c0100b95c0100c75c01002f
:10073c00335c0100d9580100c13801007d1701005c
:10074c00951a010069260100f1210100914e01006a
:10075c00e1560100210f0100ad34010051350100bb
:10076c00895c0100371d010000000000680b0020af
:10077c002c00000000000000f80c00200c00000011
:10078c0000000000380b00203000000000000000ca
:10079c00b8070020a0000000000000002f0d002072
:1007ac000100000000000000920d0020020000007b
:1007bc0000000000370d00200100000000000000c8
:1007cc003f0d00200100000000000000250d00205e
:1007dc000100000000000000940d00200300000048
:1007ec0000000000280d00200700000000000000a1
:1007fc00480d002004000000000000001c0d00202b
:10080c000900000000000000900d00200200000014
:10081c0000000000300d0020070000000000000068
:10082c008c0d00200100000000000000860d00204f
:10083c000200000000000000300c0020140000003a
:10084c0000000000880d00200100000000000000e6
:10085c00840d002002000000000000004c0d002060
:10086c0004000000000000001a0d0020020000002f
:10087c0000000000580c00202000000000000000c8
:10088c00500d00200800000000000000940b002018
:10089c0040000000000000007c0d00200200000061
:1008ac0000000000380d00200700000000000000d0
:1008bc00780c00202000000000000000460d0020f5
:1008cc000200000000000000720d00200200000079
:1008dc0000000000760d0020020000000000000067
:1008ec007a0d00200200000000000000440c0020e3
:1008fc001400000000000000980c00201000000004
:10090c0000000000260d0020020000000000000086
:10091c007e0d00200600000000000000a80c002046
:10092c001000000000000000d40b0020200000008c
:10093c0000000000b80c00202000000000000000a7
:10094c00f40b00202000000000000000d80c002058
:10095c001000000000000000890d002003000000c2
:10096c000000000058080020a0000000000000005b
:10097c008d0d00200200000000000000580d00202a
:10098c000400000000000000400d002006000000e4
:10099c00000000008f0d002001000000000000008e
:1009ac00970d00200200000000000000000e002047
:1009bc000a00000001000000020b00107f00007f05
:1009cc0000000000af0d002001000000010000003d
:1009dc0001000000f80800206c000000000000007e
:1009ec00040a00204400000000000000100d00204c
:1009fc000a00000000000000780d0020020000003a
:100a0c000000000034050020f4000000000000008d
:100a1c00040d00200c000000000000006409002000
:100a2c0050000000000000005c0d002004000000dd
:100a3c0000000000990d00200600000000000000de
:100a4c000a0e002001000000010000002000000040
:100a5c009f0d00200300000000000000280600206d
:100a6c009001000000000000a20d00200100000019
:100a7c0000000000600d00200400000000000000d9
:100a8c00a30d00200100000000000000640d0020f8
:100a9c000400000000000000a40d0020060000006f
:100aac0000000000e80c0020100000000000000016
:100abc00aa0d00200400000000000000c80a00205d
:100acc0040000000000000000000002000040000b6
:100adc0000000000ae0d002001000000000000002e
:100aec00740d00200200000000000000700d0020ba
:100afc000200000000000000680d0020040000004f
:100b0c0000000000b40900205000000000000000ac
:100b1c006c0d00200400000000000000000000002c
:100b2c0000000000666666666666666666666666f1
:020000040000fa
:020000040001f9
:100b3c00f0b5ce46474680b583b0002003f0c4fa2a
:100b4c00c74b02229a608025ed009d6001215960ff
:100b5c003f315a54802424019c608020c00198604d
:100b6c00490299609d619c61986199615a61083252
:100b7c00bc490b00c046013b9bb2002bfad1013a99
:100b8c0092b2002af5d1b64b02229a616232b54973
:100b9c000b00c046013b9bb2002bfad1013a92b23a
:100bac00002af5d1b04b19780423ad4aaf4fb04da4
:100bbc00b04cb1481e001ce013693b401361136933
:100bcc002b401361136923401361136903401361b4
:100bdc000121aa4b013b002bfcd1a84b013b002b64
:100bec00fcd1a64b013b002bfcd1013ef6b2002ef2
:100bfc001bd00029e0d0012901d00021e9e71169bf
:100c0c008023db000b431361116980231b010b4311
:100c1c00136111698023db010b431361116980237c
:100c2c001b020b4313610021d3e701968e4b197005
:100c3c0004f074f803f0acff9149322003f0d4f8bf
:100c4c009049232003f0d0f8fa208f49800003f05c
:100c5c00cbf8fa208d49400003f0c6f804f018ffd9
:100c6c008b4b99460623984670e004f0b5fd102294
:100c7c008849894804f01aff00286cd01022854955
:100c8c00854804f0b3ff854b1978854b1878012300
:100c9c00002200927f4d01260ae0e7b2072f12d8fe
:100cac003700a7403843c0b2009601340133dbb2a1
:100cbc0022002f5d852ff0d0e7b2072f09d837001f
:100ccc00a740b843f0e7083a370097403943c9b218
:100cdc0003e0083a37009740b9430f2be5d9009b46
:100cec00002b01d06e4b18706e4b1b78db00194338
:100cfc00c9b26a4b19706a4b187803f02bff2ae0c3
:100d0c000133dbb29ab294420fd90a78d2b2f05cba
:100d1c00a8540a780132d2b20a700a78d2b2a02a48
:100d2c00eed1002260480270eae7604b1b78012b81
:100d3c0023d05f4b1b78012b50d005f043f804f007
:100d4c008bfe5c4b1b78012b00d1d8e0444b1b6a0b
:100d5c0001241c4089d004f031f920234a46d35c8d
:100d6c00002be2d003f03cfa494b1c8f002cdcd05a
:100d7c001e6b019b4c49504dc7e74c4b00221a701f
:100d8c0004f0ceff00280ad04c4b5b7842461a4246
:100d9c001dd0334a136938490b401361c9e701f080
:100dac004bff474a517993791b02822252010b4324
:100dbc00934206d02a4a11698023db000b4313614e
:100dcc00e2e7274a136929490b401361dce7244aff
:100ddc00116980231b020b431361aae7344b0022d9
:100dec001a70384b1b78002b22d0364b1a70364bae
:100dfc001b78002b15d11a4a13691d490b4013613e
:100e0c00324b1b78002b65d0304b00221a702e4bc6
:100e1c001b78002b1ad1124a136916490b40136127
:100e2c0069e00f4a116980231b010b431361e7e74b
:100e3c00274a13780133dbb21370042be0d9084a2c
:100e4c00116980231b010b431361d9e7044a116913
:100e5c008023db010b4313611b4b00221a706ce7e0
:100e6c0000440041dcff0000aa0d0020fffbffff47
:100e7c00fff7ffffffbfffffff7fffff40420f00a9
:100e8c00a95b0100695d0100a1430100755d0100d2
:100e9c00c80a0020c80c0020e80c0020a90d002076
:100eac00a80d0020a50d00208b0d0020ab0d0020ff
:100ebc00ac0d00208f0d002058080020500d002094
:100ecc00380d00209e0d0020a70d0020ae0d002037
:100edc00a60d00200c4a13780133dbb21370042bdf
:100eec0005d90a4a11698023db010b431361084bb6
:100efc001b78002bb0d1064b01221a701de7002085
:100f0c0000f0aeff22e7c046ad0d002000440041ca
:040f1c00a70d0020fd
:020000040000fa
:020000040001f9
:100f2000f8b5de4657464e464546e0b50400150086
:100f30000f270f404eb2431e033300d9c6e10823ea
:100f4000d356022b00ddc4e1022f00d9c4e1436a6d
:100f500098463b0010339b00c31859683211082390
:100f600013408a469a445346db79db0700d4b6e146
:100f70006b68994653469988484602f051fc00290f
:100f80004cd0002e00dbade1e378002b4cd00023e9
:100f9000ab6103332b72002399466968296253467b
:100fa0001a68002a00d076e104232b720023eb613b
:100fb00053461d60002f00d02fe1002e00dae8e03c
:100fc0002123e35c032b6ad0042b00d1c7e0012b63
:100fd00000d065e1216d0832286804f00dfe8223ff
:100fe0005b0040224146ca54f43b0822ff328b5436
:100ff0000a22ff328b542b689a79002a44d121238c
:101000000732e2545346aa691a6002232b72eb6836
:10101000002b00d144e12800984741e1002e0edb6f
:10102000e378002b00d060e1a37b012b1bd07f2055
:1010300040423cbc90469946a246ab46f8bd2b7c4c
:10104000da0706d54a46002a03d0802252421343cb
:101050002b74e378002be7d00023ab6103332b72b2
:101060000023994699e700239b46a3730a20205644
:1010700003f0fefc81465b46ab6103332b7200211b
:10108000002e00db8ae788e71b787f2b03d821231b
:101090000222e254b6e721230622e254b2e7666d4b
:1010a000b604b60c286a6b6832189a4201d91e1a27
:1010b000b6b2216d2b689c466044320004f09cfd62
:1010c0002b6af3182b626a6893421bd300232b729e
:1010d00021330822e254203bff3241468b540a223e
:1010e000ff328b540433ff33c93aca542b6a6b6006
:1010f0005346aa691a60eb68002b00d1d0e02800a3
:101100009847cde053469b88b3421bd901232b72ed
:1011100021220821a1540822ff3241468b540a2281
:10112000ff328b540433ff33c93aca542b6a6b60c5
:101130005346aa691a60eb68002b00d1b0e0280082
:101140009847ade001230822ff3241468b540a2222
:10115000ff328b540433ff33c93aca54a0e0002352
:101160002122a3542b7201330822ff3241468b54b3
:101170000a22ff328b540433ff33c93aca54534610
:10118000aa691a60eb68002b00d189e02800984713
:1011900086e02123e35c062b15d0072b00d07fe0ef
:1011a00021230822e254636e9b0b9b036366022398
:1011b000ff3241468b540a22ff328b540623ff3301
:1011c000893aca546ce02b6a52469688b34200d2e0
:1011d0009eb2002e1bd12b6a9b1b2b62212309225e
:1011e000e254636e9b0b9b036366626eb3049b0cbd
:1011f0001343636602230822ff3241468b540a22be
:10120000ff328b540623ff33893aca5448e0206edc
:101210003200296804f0f0fcdde7002e12db2968bb
:101220007b01e21811651f00474405220821ff31a8
:101230007a543b000a33ff331a7082235b003b323f
:10124000fa542de0286a9b88984200d883b26a68d5
:10125000101a2a68944660447a01a1180866286a20
:10126000c01a2862486e800b80034866486e9b0453
:101270009b0c03434b66130043440a220821ff31b1
:101280005a541f000a37ff373a700622ff32873957
:10129000995405e01a009369002bfbd19561ea612e
:1012a000e3780020002b00d0c3e64b46002b09d08a
:1012b000a37a5ab2002a05db1f221a400123934069
:1012c0000d4a13600123a3730020b2e67d20404243
:1012d000afe67b204042ace67c204042a9e6762087
:1012e0004042a6e67d204042a3e60023ab610333e3
:0c12f0002b720023994651e600e100e05b
:020000040000fa
:020000040001f9
:1012fc00f8b5040004f04cfa85b2072c00d907e1cc
:10130c00a400894b1b599f4603f000fe874b1870b5
:10131c00874b18700023874a1370874a13718749cb
:10132c000b8850780122824093430b8003f0eefd32
:10133c00f8bd3c78200003f057f80134e4b23c705f
:10134c00073dadb2102c0ad0072d16d97c4ce61dea
:10135c0003f0dcfd20700134a642f9d1e9e700234b
:10136c00744a1370744a137174490b8850780122b3
:10137c00824093430b8003f0c9fd724b1b787f2b8b
:10138c0010d904f03ff804f051f804f077f804f0a9
:10139c0061f804f087f804f099f8c9e7072decd947
:1013ac00644fd3e704f01af8ebe70023614a13709b
:1013bc00614a137161490b88507801228240934332
:1013cc000b8003f0a3fd03f0cdffb1e7012dfad99b
:1013dc005d4f584c5d4e03f099fd38702378f054f6
:1013ec000133dbb22370013dadb2102bddd0012dea
:1013fc00f1d1e8e7564c2500143503f087fd207039
:10140c000134a542f9d14b4c207804f0edfa0023bd
:10141c002370494a137149490b8850780122824044
:10142c0093430b8003f072fd03f088ff80e703f019
:10143c006dfd484c207003f069fd60702288414bb3
:10144c001a8000233b4a13703b4a13713b490b88ab
:10145c0050780122824093430b8003f057fd03f038
:10146c0041fc65e70023334a1370334a1371334947
:10147c000b8850780122824093430b8003f046fd89
:10148c0003f098ff03f0dcfd03f0f0fd03f004fe25
:10149c004ee7012df4d9304f264e03f037fd38704e
:1014ac003478200002f09cf80134e4b23470013d31
:1014bc00adb20c2cd6d0012defd1e1e700231d4aa3
:1014cc0013701d4a13711d490b88507801228240fc
:1014dc0093430b8003f01afd03f058ff03f084fdd7
:1014ec0003f098fd24e7012df6d91c4f114e03f0a3
:1014fc000dfd38703478200002f0e0fa0134e4b2cb
:10150c003470013dadb20d2cd8d0012defd1e3e7f5
:10151c00094b59885b789b00114a985804f072fa71
:10152c0003f0f4fc04e7c04618590100850d0020b7
:10153c000a0e00202f0d0020400d0020920d0020df
:10154c00280d00207c0d0020840d0020b80c0020fc
:10155c00300c0020900d0020880d00208c0d0020f8
:04156c0038590100e9
:020000040000fa
:020000040001f9
:10157000f8b5754b1b79022b2ad0032b00d16ee0f6
:10158000002b0ed0704b00221a71704b1978c9b223
:10159000002905d16e4b1b881bb2002b00da91e0ad
:1015a000f8bd6a4b1b78012befd004f0f7f8052843
:1015b000ebd903f0b1fc5528e7d1664b01221a7034
:1015c000614c0421200004f023fa02232371dce79c
:1015d0005d4b1b78022b0ed0012b27d0052bd4d1cd
:1015e00004f0dcf8584b5b8880b28342cdd2564b76
:1015f00003221a71c9e7544b59889f2903d9587897
:10160000fff77cfec1e704f0c9f84f4b5b8880b25e
:101610008342bad24e4803884b494c780122a240fb
:1016200013439bb2038003230b71aee704f0b6f8bb
:101630000128aad903f070fc040003f06dfc002c13
:10164000a3d1aa28a1d1424803883f494c7801225e
:10165000a24013439bb2038003230b7195e73b4bde
:101660001b78002b22d13a4b1b881b0500d18ce73d
:10167000354b1b78012b11d0022b00d085e7324c63
:1016800061886078fff73afe0023237130490b88a8
:1016900060780122824093430b8076e72a4c607881
:1016a000002101f0f1ff002323716ee7264b1b7828
:1016b000052b00d069e7244c607803f0aff80023d5
:1016c000237162e7244b1b780026244f0124250058
:1016d00018009a00d259002a07d10133dbb2260044
:1016e000072bf5d12e000b00f2e7002e01d01a4a8d
:1016f00013701b4b1a5c1b4b1a701978c9b21a4b2a
:101700001a5c032003f054f9134c23789b00134a0e
:101710009b58002098472378144ad15c144a1180c2
:10172000144ad25c9b0014495958012002f00efe65
:1017300023780133dbb2072b02d0074a13702fe75f
:10174000054b00221a702be7400d00208f0d002062
:10175000920d0020890d0020250d0020485a01001f
:10176000a85d01003f0d0020b05d0100b85d0100e3
:0c1770001a0d0020a05d01002c5a0100a1
:020000040000fa
:020000040001f9
:10177c00f0b5d6464f464646c0b50f260e40022e53
:10178c0000d9b1e0fe25ad001c00083ca4b2ac426f
:10179c0000d9ace0441c00d1ace0446aa146082b53
:1017ac0049d9002408250134e4b26d00adb2ab4236
:1017bc00f9d835001035ad0045196d68002a3cd1bb
:1017cc002a60ab80aa710126e9793143e971aa60dc
:1017dc00ab81aa73eb7b3343eb7380235b004946ed
:1017ec00ca541132ca54426d44490a404265436e90
:1017fc000b404366436d2407e022d205144023437b
:10180c004365436e1c434466036903654369036681
:10181c00436d5b005b084365436e5b005b0843668e
:10182c000a23ff3313224946ca5400201cbc90469d
:10183c009946a246f0bd0024bbe749b28a4609117d
:10184c00884608218c464146674639408c4665449b
:10185c0000212960ab80aa71eb7901218c4661468d
:10186c000b43eb715346002b29db73014b441f00d8
:10187c0080235b00fd5c07218d43fd54fd5c520011
:10188c001f49525c1543fd540623ff334022fa5482
:10189c0076005346d90f761836018019436d174ad6
:1018ac0013404365436d2407e022d20514401c43ca
:1018bc004465436d5b005b0843650020b6e773012c
:1018cc004b441f0080235b00fd5c70218d43fd5455
:1018dc00fd5c520094460a4a624452781543fd540a
:1018ec0004338022fa54d3e77c2040429ee77c20cc
:1018fc0040429be77d20404298e7c046ffffff8fa8
:04190c00805d0100f9
:020000040000fa
:020000040001f9
:1019100010b55e4b9b7d002b41d05c4b5b8b9b07d6
:101920001bd55b4a21230221d154594a202300218f
:10193000d154564a5168c0239b020b435360d3696c
:10194000002bfcd1514b83221a76514b5b6a002b42
:1019500025d04f4a906a984721e04c4b5b8bdb07c0
:1019600004d54b4a21230221d154dee7474b5b8b40
:101970005b0704d5464a21230121d154d5e7444ac7
:101980002023d356032b5ed0042b17d0022b07d075
:101990003f4a2023d3565a1cc7d0062b3cd010bd3b
:1019a0001369002b04d09088002102f0c3fdefe7fb
:1019b000374b9888012102f0bdfde9e7344a93696d
:1019c000126993420cd0324a9168cc5c2f4828218e
:1019d0004454013393610200d369002bfcd1dee74c
:1019e0002b4b5b69002b0ed0294b9b885b0001229f
:1019f0001343264a5362d369002bfcd1244a203377
:101a00000321d154cbe7214a5168c0239b020b43e9
:101a10005360d369002bfcd11d4b002220215a5466
:101a200001315a54194b83321a761900533a4b8bb1
:101a30001340102bfbd1164b5b6a002bafd0144a1e
:101a4000906a9847abe7124a5369013bd2699a42c0
:101a50000dd00e4ad369002bfcd10d4ad3690b4837
:101a60002821415cd068c1540133d36190e7074a13
:101a70005168e023db020b435360d369002bfcd198
:101a8000034a20330621d154e3e7c0460010004248
:041a9000680b0020bf
:020000040000fa
:020000040001f9
:101a9400f8b5ce46474680b504000e000f250d402c
:101aa400022d02d9102900d09ae0631c00d19ae0db
:101ab400676ae378002b10d1a37b012b05d07f202c
:101ac40040420cbc90469946f8bd0023a3730a20fb
:101ad400205602f0cbff814601e000239946102ee8
:101ae40028d0002d4dd17f23842149007b54082127
:101af400ff317b5481330021f954636cd97901207f
:101b04008143d971d97b8143d973e3780020002bb9
:101b1400d7d14b46002b09d0a37a5ab2002a05db51
:101b24001f221a4001239340304a13600123a373f8
:101b34000020c6e71023842149007b540821ff318b
:101b44007b542600443600211b01984600239c4602
:101b54007f254b01fb184246604698541800093013
:101b6400ff3005700820ff301d5408ced8790122bb
:101b74009043d871d87b9043d87301310329e8d1bd
:101b8400c3e776b2002e1bdb6b01fb1880204000fc
:101b9400195c0727b943195405210820ff3019544b
:101ba4000933ff3319701035ad0065196b683611b0
:101bb40008210e409e19f37907398b43f371a4e78a
:101bc4006b01fb1880204000195c7027b94319543d
:101bd4000a210820ff3019540933ff331970e2e752
:101be4007c2040426de77d2040426ae700e100e04e
:020000040000fa
:020000040001f9
:101bf400f0b583b005000c004978032900d179e0e1
:101c04001dd9052930d009292cd1a278e3781b02eb
:101c1400134304d1c17807220a40052a2ed0ad22ed
:101c2400aa5cdbb29a4200d17fe0ae23ef5c002fc6
:101c340041d00233ea580023b4218c4633e0012911
:101c44000ad1a278e3781b021343012b05d1bf33d9
:101c54000022c254002100e00121280002f04bfdc3
:101c640003b0f0bd0121f8e7027880235b421343ff
:101c74000370a278ac23c2540021eee7b8330632d5
:101c8400c25402f02dfcad230022ea54eb78073253
:101c9400934304221343eb700021dee70133dbb2ec
:101ca4000432bb4207d011684e79a0788642f5d140
:101cb40060462950f2e7a278ad23ea54280001f0e7
:101cc400c3feeb780722934305221343eb70a278fb
:101cd40001ab1a70dd23eb5c0021012bbdd1df3396
:101ce400eb58002b23d0e422aa5801a90a209847d4
:101cf4000021b2e7a278e3781b021343012b0fd033
:101d04000121022ba9d102780c331340022ba4d158
:101d140063798370437801221343437000219ce765
:101d2400bf330122c254002197e7002195e7002127
:021d340093e733
:020000040000fa
:020000040001f9
:021d36007047f4
:020000040000fa
:020000040001f9
:101d380010b50538c3b2122b18d89800454b1b585c
:101d48009f46454a137801210b43137002f0ccffdc
:101d58000ce0414a537808210b43537002f0c4ff4a
:101d68003e4b013b002bfcd102f052fc10bd3a4a1d
:101d7800537810210b435370e8e7374a53782021f2
:101d88000b43537002f0b0ffeae7334a01231940ce
:101d980049001378022083430b431370d6e72e4a79
:101da8000123194089001378042083430b431370df
:101db800cce7294a01231940c90013780820834336
:101dc8000b431370c2e7244a012319400901137811
:101dd800102083430b431370b8e71f4a01231940af
:101de80049011378202083430b431370aee71a4a46
:101df8000123194089011378402083430b43137052
:101e0800a4e7154ac90110787f23034019431170cc
:101e18009ce7114a01230b40517801208143194363
:101e2800517093e70c4a0123194049005378022066
:101e380083430b43537089e7074a012319408900fc
:101e48005378042083430b4353707fe7044b197086
:101e58008ce7c046804501007c0d002040420f0001
:041e68008d0d0020bc
:020000040000fa
:020000040001f9
:101e6c0010b53f4b1b78012b03d03e4b00221a7050
:101e7c0010bd3d4b1b78dbb23c4a12789a4223d8fa
:101e8c003b4b1b78022b2cd0394b1b78012befd101
:101e9c00384b187882b2384b1b889a424dd2374b4c
:101eac001b780f2213409b00354a9b5898472e4baa
:101ebc0001221a702f4a137801331370314b1b68af
:101ecc00187803f001fed3e7274c2378dbb22d4ab8
:101edc001268d05c03f0f8fd23780133dbb2237079
:101eec00c6e7244b19788ab2234b1b889a4204d339
:101efc0014d01c4b00221a70bae7234b587801f00f
:101f0c00bdfb194b01221a701a4a13780133137056
:101f1c001c4b1b68187803f0d7fda9e70131154b52
:101f2c0019701a490b88184a507801228240934341
:101f3c000b80aa2003f0c8fd9ae79a4203d0094b04
:101f4c0000221a7094e701300a4b18700f4a13885c
:101f5c005b045b0c1380aa2003f0b6fd88e7c04637
:101f6c00af0d00208f0d0020980d00208e0d00204d
:101f7c00370d0020970d00201a0d00203f0d00207a
:101f8c00485a0100580d0020400d0020920d0020f1
:020000040000fa
:020000040001f9
:101f9c00f0b5c64600b506000f0015001c0006abd8
:101fac001b78002800d073e0012252420a60404a9c
:101fbc00127c002a00d16ee0002c00d16ee09a0752
:101fcc000ad53b4bd989a14200d96ae0200001f027
:101fdc0021fc641a022101e001211940344b5a6b97
:101fec009b6a9a4260d2334b5b78012b05d06024fc
:101ffc006442200004bc9046f0bd2e4b00225a7067
:10200c002d4b1b7a5bb2012b10dd2b4a2c23d356a4
:10201c00012b0add5023d3560226012b06dd254b5e
:10202c0001225a7080246442e3e70126224af00020
:10203c0083199b009846904483199b009d504346fe
:10204c005c600023444663611c4be360464621748c
:10205c0003f098fe164c636b0133636303f096fe3a
:10206c003e60217b2068424603f05afb041e03d1dc
:10207c00104b01225a70bce703f084fe0c4a536be0
:10208c00013b536303f082fe01235b423b60efe7ad
:10209c0078246442ade776246442aae77e24644245
:1020ac00a7e77e246442a4e780246442a1e7c046eb
:1020bc00040a0020780d0020f8080020153d0100ce
:020000040000fa
:020000040001f9
:1020cc0030b583b0002800d081e0444b1b78002b46
:1020dc0000d07fe0414b01229a731a7020301a54c1
:1020ec004c685c62c87b58720020587098631871f9
:1020fc008d7a9d72cd7add720d7b1d734d7b5d7378
:10210c00d87022705a6a013093780342fcd10a23aa
:10211c00d370334b1b685b0b0193019a1f23134045
:10212c001f2b33d02d4a526a108d9b01034313850c
:10213c00019b9b05db0e1f2b2ad0108d03431385af
:10214c00019bdb045b0f072b24d0108d1b03034377
:10215c0013850b7a002b03d01378042003431370e0
:10216c001e4b5b7a012b17d01c4a516a0b7802204c
:10217c0003430b70516a02228b781342fcd1174a2d
:10218c0020230221d154002003b030bd1a3bc9e7f3
:10219c00023bd2e7043bd8e7104b5a6a1800503088
:1021ac0050623c22002098540a6a1a645a6a1389b5
:1021bc000c308343897b032906d09bb21381002109
:1021cc00064802f003fdcfe701310b43f5e7012090
:1021dc004042d9e701204042d6e7c0460004002027
:0421ec0024608000eb
:020000040000fa
:020000040001f9
:1021f000f8b5ce46474680b5060088460f240c4009
:10220000022c00d97ce0431c00d17ce0476a23000b
:1022100010339b00c3185d68c378002b10d1837bfb
:10222000012b05d07f2040420cbc90469946f8bd5a
:10223000002383730a20305602f01afc814601e025
:1022400000239946002c2dd182235b00f722fa54fb
:102250000823ff33783afa54eb790227bb43eb713a
:10226000043c2100280002f0cdffeb7bbb43eb7365
:1022700028000830210002f0c5fff3780020002b71
:10228000d2d14b46002b09d0b37a5ab2002a05dbd3
:102290001f221a40012393401c4a13600123b37389
:1022a0000020c1e743465bb298461b110820184046
:1022b0002818c37902229343c3710421494202f0d2
:1022c000a1ff4346002b0ddb64013c1982235b0018
:1022d0001022e2540822ff322021a154073aff3a8b
:1022e000e254cae764013f1982235b002022fa54ba
:1022f0000822ff324021b954063aff3afa54bce7ab
:102300007c20404290e77d2040428de700e100e0e4
:020000040000fa
:020000040001f9
:10231000f8b504000d0016000823c356002b00dc9e
:1023200082e009297ed88b00404ad3589f464378e3
:10233000042293434370ec27c3591b6c0021c069ee
:102340009847e3591b6c8021e0699847200002f010
:10235000c9f8e3595b6a1021e0699847e3591f6a9d
:10236000402300228021e069b8479023e356022be6
:1023700007dc22008832ec23e3589b6b0021e069e4
:102380009847e3780722934303221343e370ec2337
:10239000e3581b69e0699847072303405b002078f6
:1023a0000e22904318432070e2680e231840022842
:1023b00016d0b0239168e1501279023be254ad236c
:1023c0000022e254dd23e35c012b2dd1df33e358ff
:1023d000002b29d0e422a25831002800984723e09e
:1023e000a2335169e150127c023be254e7e74378a3
:1023f000042293434370e5e7437804221343437078
:10240000e0e743780422934343700de0c37807224a
:10241000934301221343c370d4e7c3780722934345
:10242000c370cfe7002dcdd1f8bdc046d05201001a
:020000040000fa
:020000040001f9
:1024300010b50f2810d816290ed889003d4b5b58cf
:102440009f463d49012313405b000a5c0224a243de
:102450001a430a5402f08cff10bd37490123134080
:102460009b000a5c0424a2431a430a5402f080ff32
:10247000f2e73149012313400a5c0124a2431a43c5
:102480000a5402f075ffe7e72b4bd1011c5c7f2259
:1024900022400a431a5402f06bffdde7012a09d0fb
:1024a00001228240254b1b889343244a138002f06b
:1024b00087ffd1e701238340204a128813439bb250
:1024c000f3e7012a09d0012282401d4b1b88934368
:1024d0001b4a138002f0bafdbee701238340184a6d
:1024e000128813439bb2f3e7012a09d001228240ec
:1024f000144b1b889343134a138002f0bdfdabe7d6
:10250000012383400f4a128813439bb2f3e7012a49
:1025100009d0012282400c4b1b8893430a4a138046
:1025200002f0c0fd98e701238340074a1288134355
:102530009bb2f3e734410100b80c0020260d0020c7
:0c2540007e0d0020800d0020820d002088
:020000040000fa
:020000040001f9
:10254c0070b582b0040016006b460022da710e29b9
:10255c0001d002b070bdf42545433f4bed18b27964
:10256c00f3791b0213432a00e83213802b00ec335f
:10257c001b681b6c7231e86998473378db06db0efd
:10258c00dab2012a2cd05bb2002b09d0022a38d047
:10259c00032aded132000e21280002f0cdfcd8e750
:1025ac003278602313400cd152b2002a04db310084
:1025bc002800fff719fbcce73100280000f0cef91a
:1025cc00c7e7402b06d0202bc3d10121280002f0f5
:1025dc008ef8bee732000e21280002f0adfcb8e701
:1025ec00327860231340402b05d03179320028001b
:1025fc0001f022ffade731793200280001f01cff19
:10260c00a7e7317900290ad1337860221a421bd10d
:10261c006b46d9793200280001f090f999e76b46a6
:10262c00da1d280002f0def9f42363430a4ce418a7
:10263c00e27807231340052b01d10028e4d10121b6
:10264c00280002f054f884e76b46d9793200280050
:0c265c0001f0f2fe7de7c04634050020ce
:020000040000fa
:020000040001f9
:10266800f8b5ce46474680b506000d000f240c404d
:10267800022c00d96de0431c00d16de0476a2300ad
:1026880010339b00c3185b689846c378002b10d1a1
:10269800837b012b05d07f2040420cbc9046994695
:1026a800f8bd002383730a20305602f0ddf9814615
:1026b80001e000239946002c29d06db2002d42dba1
:1026c800083464013c19102363712d1108231d403f
:1026d800454403214942280002f090fdeb7902228b
:1026e8001343eb71f3780020002bd6d14b46002b17
:1026f80009d0b37a5ab2002a05db1f221a400123f7
:102708009340174a13600123b3730020c5e70623db
:10271800ff332022fa54103afa54033c2100404671
:1027280002f06cfd02254346db792b434246d37108
:1027380040460830210002f061fd4346db7b2b4315
:102748004246d373cee7083464013f1920237b71d6
:10275800bbe77c204042a0e77d2040429de7c04681
:0427680000e100e0ac
:020000040000fa
:020000040001f9
:10276c00f8b50e0015001c00002862d101235b4255
:10277c000b60374b9b7a002b5ed0354b19892000b0
:10278c0001f048f8002c5ad000295bd1304b9a6be1
:10279c00db6a9a4259d22f4b5b78012b03d0602411
:1027ac0064422000f8bd2b4b00225a702a4b1b7a36
:1027bc005bb2012b10dd284a2c23d356012b0addea
:1027cc005023d3560231012b06dd224b01225a70c5
:1027dc0080246442e5e701211f48cb005f18bf004d
:1027ec00c7195a18920015507c6000227a611b4b55
:1027fc00fb6003f0c7fa164ca36b0133a36303f021
:10280c00c5fa3760a17920683a0002f089ff041eee
:10281c0003d1104b01225a70c3e703f0b3fa0c4af0
:10282c00936b013b936303f0b1fa01235b4233607a
:10283c00efe778246442b4e776246442b1e77e245f
:10284c006442aee77e246442abe780246442a8e78e
:10285c00040a0020780d0020f8080020a53c010097
:020000040000fa
:020000040001f9
:10286c00f0b5d6464f464646c0b5002867d100297c
:10287c0068d08b69002b68d0354b01301872002260
:10288c001a83da780724a243da708a69da600e8a2e
:10289c001e824d695d610c7f0722144024011a7859
:1028ac007027ba439246002291460027b846c027ab
:1028bc004246da555246224382437f2422401a7004
:1028cc005a785b3ca4469c44643467461f510434dc
:1028dc0040271f510c341855083c4f461f550434e3
:1028ec001c4f1f5108341b511b4c1c679b677424d5
:1028fc0018558243033082435a70dc224846985460
:10290c001032486a9850498c04329952002e10d0db
:10291c0000241e0005e010350134e4b2338aa342d2
:10292c0007d9eb68002bf6d01b69002bf3d0984726
:10293c00f1e700201cbc90469946a246f0bd012050
:10294c004042f7e701204042f4e701204042f1e722
:0c295c0034050020652a01003d3f010009
:020000040000fa
:020000040001f9
:1029680030b583b005000c00002301934b78062b8b
:1029780014d0082b5ad0002b3bd1bc2143520378ea
:10298800db07c022805cbf3a02405200db0f1343d2
:102998006b542b00bc33019302204be0c068cb780a
:1029a800072b57d89b002c4ad3589f462a780e23ca
:1029b8001340022b03d003680193122032e0c3684e
:1029c800019312202ee08b78ae22aa5c9a4210d98d
:1029d800b022aa589b009b58002b0ad001939a78e2
:1029e800d8780002104325e02a7870231340102b72
:1029f8002ed00121280001f07cfe29e02a787023de
:102a08001340102bf5d1023b1a40022a03d0436a27
:102a180001930a2006e0036a01930a2002e001aa52
:102a280000f004ff0199002905d1e2e70300ad3366
:102a3800019301200199a279e3791b0213431a1c1f
:102a48009bb2834200d9021c92b2280001f005ff14
:0c2a580003b030bd0020e5e77859010014
:020000040000fa
:020000040001f9
:102a640070b505000823c3569a1c41d04469022b53
:102a740007d04268002a42d1c423e25400210f2621
:102a84001ee0c233e35c002b0ed02300c4335b6929
:102a9400002b09d0e022a558ab422ad02200c43230
:102aa400908900220c219847c4230122e254230078
:102ab400c433284a5a61228b9a81210024310e267c
:102ac4002300c4335b69e022a558ab423cd022000a
:102ad400c43290890a00310098478c234022e25086
:102ae40022008832e0696033e3589b6b00219847e9
:102af40070bde423e25800210c20a847d4e7c42386
:102b0400e35c002b1dd02300c43358689b689842b3
:102b140002d300210d26d3e7d423e358181821004b
:102b2400243103f067f82200c4326b6851688c4684
:102b3400634453609268002101269342c0d30c364b
:102b4400bee700210126bbe7e423e2583000a84792
:082b5400c3e7c0464d25010056
:020000040000fa
:020000040001f9
:102b5c00f8b5ce46474680b50500431c40d0f4225c
:102b6c004243344b9b181b7a5bb2002b38ddf422aa
:102b7c004243304b9b18dc331b78002b17d0012bb6
:102b8c002ed1f42242432b4b9b181b8a9846002bc8
:102b9c0026d0284bf4224243d75c3f077f0f9b186b
:102bac001a00ad32127891465e69002424e0f423b9
:102bbc004343204ce4182300f0331888043b1b6873
:102bcc001b680f219847e061431c09d0f4236b4329
:102bdc00184ded182b00dc3301221a7002232b72d6
:102bec000cbc90469946f8bdb08898471036013415
:102bfc00e4b2a3b24345f3d233783b42f6d07378b8
:102c0c004b45f3d1f4226a430a4b9b18da7807231d
:102c1c001340052bead1f4226a43064b9b185b78d0
:102c2c005b07e3d4f368002be0d0db68002bdbd12f
:082c3c00dce7c046340500206e
:020000040000fa
:020000040001f9
:102c440070b52c4b00229a702b4b1b78002b00d1b3
:102c540070bd03f069f80028fad1284803f03ff862
:102c6400002803d0234b01229a70f1e70222244961
:102c7400244800f063ff0028f4d180300422224964
:102c8400400000f05bff0028ecd1803010221f4987
:102c9400c00000f053ff0028e4d1c03020221c49ba
:102ca400800000f04bff0028dcd18030202219493d
:102cb400800000f043ff0028d4d1a0302022164920
:102cc400c00000f03bff0028ccd190301022134903
:102cd400400100f033ff0028c4d10023104c0d48fc
:102ce4000b49c25acd5a521be2520233202bf8d15f
:102cf400aee7c046540d00209b0d0020380d002087
:102d0400720d002018210000500d0020c80c002076
:102d1400d40b0020f40b0020940b0020d80c0020ce
:042d2400b40b0020cc
:020000040000fa
:020000040001f9
:102d2800284b1a6a28491140e12252000a431a62c4
:102d380000229a619a8c80218a439a841a0010236f
:102d4800d1680b42fcd0214b1b689b0e3f2b36d021
:102d58009b028022920013431a4a93621023d1687f
:102d68000b42fcd0174b02229a841a001023d16818
:102d78000b42fcd0164b174a5a60174a9a601a0041
:102d880053785bb2002bfbdb114b144a5a601a00d4
:102d980053785bb2002bfbdb0d4b114a5a601a00cb
:102da80053785bb2002bfbdb094b0e4a5a800e4a64
:102db8005a800e4a5a800e4b0e4a1a627047203bc0
:102dc800c6e7c046000800400000ffcf246080002e
:102dd800000c004001032100011000000206210040
:102de80000070100064000000742000016400000ee
:082df80000040040120001007c
:020000040000fa
:020000040001f9
:102e0000f0b5de4657464e464546e0b585b08146ac
:102e100000284ad02d4b596a83689a4600290cd065
:102e20008b6852460392002290469a4544d3002272
:102e300000238b460092019304e08360234b586289
:102e400033e0e3465e46b66834000025009a019bf5
:102e500012196b41009201935e46b669b446002e8a
:102e600012d06646b66800210f00009a019bb61882
:102e70005f41474525d8e4d1039b9e42e1d9604696
:102e80005946009a019b01e0300059464c46a0612a
:102e90008c6151468a1a4b469a609b69002b04d07c
:102ea0004a4691689a68521a9a6005b03cbc9046ae
:102eb0009946a246ab46f0bd044b586281610022a0
:102ec000e7e760465946009a019bdfe7380b002090
:020000040000fa
:020000040001f9
:102ed000f8b5314d6c6aaa69eb690120002112181e
:102ee0004b41aa61eb61002c54d02022ab5c013332
:102ef000ab54a368002b05d0a368013ba3606c6aa8
:102f0000002c24d0a368002b21d101250027224ebc
:102f10000de0e06901f02cfde368002b01d0206991
:102f20009847746a002c12d0a368002b0fd1257526
:102f30006575a378002b02d1e368002be9d120004e
:102f400001f0b0f9a378002be6d16770e4e7134de8
:102f500000242e0003e001342035052c15d0630138
:102f6000f3185b7d002bf6d062010c4b9b180022fe
:102f70005a75ab78012beed16101084b59186b687b
:102f80008b602800fff73cffe5e7034920228b5cbc
:102f9000013b8b54f8bdc046380b0020b807002019
:020000040000fa
:020000040001f9
:102fa00070b504009a22520042432e4b9b182033e6
:102fb0001b785bb2002b0fdd9a2252004243294b53
:102fc0009b189b6b002b07d09a2252004243254b43
:102fd0009b185d7a012d00d070bd9a2252004243a9
:102fe000204b9b181b6c002b1ed0984706009a2282
:102ff000520062431b4b9b183c331b788342ebd03f
:1030000001281ad09a2252006243164b9b181b7952
:10301000002b1fd1134dad1800220921686bab6b3b
:10302000984701232b7115e09a22520042430d4b21
:103030009b183c331b78012bced09a235b00634353
:10304000084ef61800220821706bb36b98470023d6
:1030500033712e009a235b006343024ce4183c3426
:083060002670b9e7000400200e
:020000040000fa
:020000040001f9
:1030680070b50400254b0c221a80254b1b78002bc9
:103078002cd12449244b1b882341012213401800da
:103088000b780125ab43214d2d88254115406d0056
:103098000343022083431e480088204110408000db
:1030a8002b430425ab431b4d2d8825412a40d200d4
:1030b80003430820834313430b70002c12d0164b94
:1030c800104a1a60154b01221a7070bd0c4b002271
:1030d8001a7002f061fa02f039f802f04df802f0c5
:1030e80061f8c6e70e4b59780c22043801f05cfcf5
:1030f80001220449022001f025f9e6e71a0d002013
:10310800890d0020880d0020260d00207e0d00204e
:10311800800d0020820d0020580d00208e0d00200b
:04312800400d002036
:020000040000fa
:020000040001f9
:10312c0010b50400214b10221a80214b1b78002b68
:10313c001ed1204b204a125d1a70204a125d5a7023
:10314c001f4a125d9a701f4a125dda701e4a125d98
:10315c001a711e4a125d5a711d4a125d9a71002c29
:10316c0018d01c4b134a1a601b4b07221a7010bd47
:10317c000f4b00221a7002f021fa02f033fa02f01f
:10318c0045fa02f06bfa02f055fa02f07bfa02f003
:10319c008dfacee7114b59787022042001f002fc15
:1031ac0007220449022001f0cbf8e0e71a0d0020b9
:1031bc00890d0020280d0020d80c0020780c002050
:1031cc00880c0020680c0020a80c0020980c002013
:1031dc00580c0020580d00208e0d0020400d0020b2
:020000040000fa
:020000040001f9
:1031ec0030b583b00d0007a90c78002810d1284900
:1031fc00506888621068c86292680a6300224a6349
:10320c008a63ca63234a0a64042c03d0052c13d0a6
:10321c0003b030bd1e4a1560089a5279022a04d0b8
:10322c000a2af5d11a4a1371f2e7089a9279022afe
:10323c00eed1174a9374ebe7089b9a78d409d978a6
:10324c0003230b40022b08d0032be1d163001c1984
:10325c00640014340e4b1c1905e0013463001c1976
:10326c0064000b4b1c19089b1b79089949790902be
:10327c00194322706180089bdb789b079b0f0091a0
:10328c000021280001f0cdff01232371c0e7c046c7
:08329c00040a0020100d0020bf
:020000040000fa
:020000040001f9
:1032a40070b51c00082909d88900294b5b589f4632
:1032b40021000d312068072201f0d1fa70bd611d93
:1032c4002068072202f0e3faf8e71378db07012508
:1032d400d90f237d012083430b43237513785b08a7
:1032e4002b405b00227d02218a4313432375002176
:1032f400206801f000fa237d1d4207d03e23e35ce1
:10330400002bdbd13e330122e254d7e73e23e35cba
:10331400012bd3d13d330022e254cfe71388e38459
:103324002068002101f0e7f9c8e70823d356603389
:10333400c4d020230121e15453682387bee72068c9
:10334400002101f0d8f9b9e721230122e254b5e7bd
:043354000858010014
:020000040000fa
:020000040001f9
:1033580070b50400204b0d221a80204b1b78002bdf
:1033680024d11f481f4b1b882341012213401d00f5
:10337800037801218b431c490988214111404900e8
:103388002b430225ab43194d2d8825412a40920035
:103398000b4304218b4313430370002c10d0144bb0
:1033a8000f4a1a60134b01221a7070bd0b4b002292
:1033b8001a7002f0ddf801f087fe01f09bfed0e7fd
:1033c8000d4b59780d22042001f0eefa0122044930
:1033d800022000f0b7ffe8e71a0d0020890d002051
:1033e8008c0d00207a0d0020460d0020760d00205f
:0c33f800580d00208e0d0020400d00201c
:020000040000fa
:020000040001f9
:10340400002941d010b4041c4c40a44601230022de
:10341400002900d54942002800d5404288422cd3d7
:1034240001242407a14204d2814202d209011b01d2
:10343400f8e7e400a14204d2814202d249005b00d1
:10344400f8e7884201d3401a1a434c08a04202d339
:10345400001b5c0822438c08a04202d3001b9c087a
:103464002243cc08a04202d3001bdc0822430028dc
:1034740003d01b0901d00909e3e7101c6446002ca2
:1034840000d5404210bc704701b5002002f0aafcf0
:1034940002bdc0460029f7d003b5fff7b3ff0ebc49
:0834a4004243891a1847c04693
:020000040000fa
:020000040001f9
:1034ac0070b505000c00431c41d0002942d0082304
:1034bc00cb56012b41ddc378002b0dd1837b012b27
:1034cc0002d07f20404270bd002383730a2028560f
:1034dc0001f0c8fa060000e00026fe232372002348
:1034ec006360e369002b0ed0a2699a61a369002b7b
:1034fc0001d0e269da610023e361a361e368002b88
:10350c0001d020009847eb780020002bdbd1002e57
:10351c0009d0ab7a5ab2002a05db1f221a400123cc
:10352c009340074a13600123ab730020cbe77d2047
:10353c004042c8e77d204042c5e77d204042c2e7bb
:04354c0000e100e0ba
:020000040000fa
:020000040001f9
:1035500070b504000f230b4049b2022b2ed8421c39
:103560002fd010339b00c3185d6809110823194040
:103570006d18c378002b29d1837b012b02d07f20cb
:10358000404270bd002383730a20205601f070fa78
:10359000060002214942280001f034fee378002ba6
:1035a00012d1002e1bd0a37a5ab2002a17db1f2299
:1035b0001a40012393400c4a136010e07c204042e3
:1035c000dfe77d204042dce70020dae702214942c4
:1035d000280001f017fee3780020002bd1d1012351
:0c35e000a3730020cde7c04600e100e02e
:020000040000fa
:020000040001f9
:1035ec00214b1a78d30726d5012383401f4909881c
:1035fc000b439bb21d490b80930722d501238340bb
:10360c001b4909880b439bb219490b8053071ed5e4
:10361c0001238340174909880b439bb215490b8042
:10362c0013071ad501238340134a128813439bb204
:10363c00114a13807047012181400c4b1b888b432e
:10364c00d8e7012181400a4b1b888b43dce7012121
:10365c008140084b1b888b43e0e701228240064bdc
:10366c001b889343e4e7c046880d0020260d0020fc
:0c367c007e0d0020800d0020820d00203b
:020000040000fa
:020000040001f9
:1036880070b507281fd883001b4ad3589f460800e7
:10369800fff748fd70bd080000f016fcfae70800c7
:1036a80001f0fef8f6e7080001f0fcf9f2e708007f
:1036b800fff7d6fceee7080001f0defaeae70800bb
:1036c800fff746fee6e70d4b01221a80002802d1db
:1036d8000b4b00221a700b4d69780b4c625c04206e
:1036e80001f062f96b78e25c9b00084959580220a6
:1036f80000f028fecee7c046f85801001a0d002059
:103708008d0d0020400d0020c05d010038590100da
:020000040000fa
:020000040001f9
:10371800e43f0100e43f0100fe3f0100fe3f0100dd
:10372800fe3f0100fe3f0100fe3f0100fe3f010099
:10373800fe3f0100fe3f0100fe3f0100fe3f010089
:10374800fe3f0100fe3f0100fe3f0100fe3f010079
:10375800fe3f0100fe3f0100fe3f0100fe3f010069
:10376800fe3f0100fe3f0100fe3f0100fe3f010059
:10377800fe3f0100fe3f0100fe3f0100fe3f010049
:10378800fe3f0100fe3f0100fe3f0100fe3f010039
:10379800b43f0100c43f0100d43f0100ee3f0100e7
:020000040000fa
:020000040001f9
:1037a800002934d00123002210b488422cd30124ec
:1037b8002407a14204d2814202d209011b01f8e781
:1037c800e400a14204d2814202d249005b00f8e73a
:1037d800884201d3401a1a434c08a04202d3001b66
:1037e8005c0822438c08a04202d3001b9c08224399
:1037f800cc08a04202d3001bdc082243002803d0d7
:103808001b0901d00909e3e7101c10bc704701b57a
:10381800002002f0e5fa02bd0029f8d003b5fff751
:0c382800c1ff0ebc4243891a1847c0467d
:020000040000fa
:020000040001f9
:10383400f8b5ce46474680b50d0090468e78c469eb
:1038440027683b78023bdbb25a0891460022012be1
:1038540005d9007e01384946fff7d2fdc2b20020e7
:10386400b24203d20cbc90469946f8bd002e03d157
:1038740043461f603878f5e72a796b791b021a43af
:103884004b4698b20028edd07b88934211d0043780
:10389400012301339bb298420dd30237b91e098824
:1038a4009142f6d173439b001b594246136018782a
:0a38b400d8e70123f6e70020d4e76f
:020000040000fa
:020000040001f9
:0238be00704751
:020000040000fa
:020000040001f9
:1038c00070b50400431c02d00378002b00d170bdfa
:1038d000456a1021fef7def8e378002b20d1a37ba8
:1038e000012bf4d10026a6730a20205601f0c0f85f
:1038f000a671134bab82ae722b89012213432b812d
:10390000e378002be3d1002816d0a37a5ab2002a1c
:1039100012db1f221a40012393400a4a13600be076
:103920000023a371064aaa82ab722b89012213439a
:103930002b81e378002bcad10123a373c7e7c046cc
:08394000ff03000000e100e0bc
:020000040000fa
:020000040001f9
:1039480070b5040011795378002b14d1bc2543536a
:10395800ec33c3585b6bc069984701230340605d33
:1039680001229043184360552100bc3101322000e8
:1039780000f073ff70bd012b07d0032b14d00c2b64
:10398800f8d1012100f0b5fef4e79078d3781b0256
:103998000343efd1ec33e358db6ae0699847002131
:1039a800200000f0a6fee5e79078d3781b020343d9
:1039b800e0d1ec33e3589b6ae06998470021200086
:0639c80000f097fed6e7b7
:020000040000fa
:020000040001f9
:0239ce00704740
:020000040000fa
:020000040001f9
:1039d00010b50400431c09d09a2252004243194bef
:1039e0009b1820331b785bb2022b00d010bd9a22ab
:1039f00052004243134b9b189b7a5ab2002a07dbb2
:103a00001f221a40012393400f49c02252008b50bd
:103a10009a22520062430b4b9b180122da705b7aa8
:103a2000012b07d09a235b006343064ce418002364
:103a3000e370dbe79a2040006043024bc018fcf7bc
:0c3a400047fbefe70004002000e100e07d
:020000040000fa
:020000040001f9
:103a4c00f0b5de464f464646c0b586b00490b4236a
:103a5c00c458a278e3781b021343994628d0002659
:103a6c0000239846059300250ee0a0780590e37896
:103a7c009846049900f016fe060008e02378ed182d
:103a8c00adb2e418a94513d96778042fedd0002ef8
:103a9c00f4d0f368002bf1d0b268b088029401978f
:103aac00414600911b689b46059b0499d847e5e766
:0c3abc0006b01cbc90469946a346f0bd25
:020000040000fa
:020000040001f9
:103ac800194b1a78d3071cd5012383401749098855
:103ad8000b439bb215490b80930718d501238340ec
:103ae800134909880b439bb211490b80530714d51e
:103af800012383400f4a128813439bb20d4a138057
:103b0800704701218140094b1b888b43e2e7012163
:103b18008140074b1b888b43e6e701228240054b17
:103b28001b889343eae7c0468c0d00207a0d0020dd
:083b3800460d0020760d00206f
:020000040000fa
:020000040001f9
:103b4000f8b504000d001600164b1b780120002b61
:103b500023d0154bff222100914399421ed8002dfe
:103b60001ed0052703e0013fffb2002f14d00f4bfa
:103b7000187833002a00210001f02efb00f058ffd6
:103b800002f0c2f80a4b1b78002becd10028ead1d6
:103b9000084b01221a7000e00420f8bd0220fce767
:103ba0000220fae79b0d0020ff2100000a0e0020f2
:083bb000990d00209e0d00207c
:020000040000fa
:020000040001f9
:103bb800f8b504000d001600164b1b780120002be9
:103bc80023d0154bff222100914399421ed8002d86
:103bd8001ed0052703e0013fffb2002f14d00f4b82
:103be800187833002a00210000f098ff00f01cff2d
:103bf80002f086f80a4b1b78002becd10028ead19a
:103c0800084b01221a7000e00420f8bd0220fce7ee
:103c18000220fae79b0d0020ff2100000a0e002079
:083c2800990d00209e0d002003
:020000040000fa
:020000040001f9
:103c3000f0b583b0194a3e23d35c012b01d003b009
:103c4000f0bd174b01221a70144a2123d35c002bbc
:103c50000cd1124d21242f003e2601f003ff2b5dd5
:103c6000002becd1bb5d012bf7d0e8e71400212538
:103c700000265655538f526b21001c3101200090b5
:103c80000020fef78bf96687635d002bd7d1034ace
:103c90003e33d35c012bdcd0d1e7c046c80a0020fc
:043ca000ae0d002045
:020000040000fa
:020000040001f9
:103ca40010b584b041690190436802930823c35658
:103cb400dab2012a07d9da1c1fd0043321d001abb0
:103cc400a0221a7202e001ab00221a720b015b18e7
:103cd4009a000e4b9b189a6b013a9a631c6a002c4b
:103ce40009d00b0159188900084b59184b6a4069cf
:103cf40001aa0521a04704b010bd01ab9e221a728f
:103d0400e4e701ab9f221a72e0e7c046040a0020f0
:020000040000fa
:020000040001f9
:103d140010b584b041690190436802930823c356e7
:103d2400dab2012a07d9da1c1fd0043321d001ab3f
:103d3400a0221a7202e001ab00221a720b015b1876
:103d44009a000e4b9b185a6b013a5a631c6a002c5a
:103d540009d00b0159188900084b59184b6a40695e
:103d640001aa0421a04704b010bd01ab9e221a721f
:103d7400e4e701ab9f221a72e0e7c046040a002080
:020000040000fa
:020000040001f9
:103d840010b5002805d10e2904d00f2924d00d29ff
:103d940018d010bd154b186813789b0609d55378b5
:103da400012b0ad9203b032b07d9012100f0a3fce6
:103db400efe7012100f09ffcebe70c49002000f045
:103dc400eff8e6e7094b1c6a002ce2d05b6a00229c
:103dd40008210020a047dce7044b1c6a002cd8d043
:103de4005b6a002207210020a047d2e7040a0020d2
:020000040000fa
:020000040001f9
:103df40070b5002927d00022002801d1100070bd21
:103e0400154bdb68002b20d0134c0123dab2e66992
:103e1400002e05d001331034052bf7d10522ede730
:103e24001d010d4b01246442ec50042ae6d80a4bd0
:103e34001401e0501b1909480068586000205872aa
:103e44001872d960dae70022d8e7034b0122524204
:103e54001a600022ebe7c046640900205c0d0020d4
:020000040000fa
:020000040001f9
:103e640010b5002925d0002826d1154c282301227d
:103e7400e2540b686360fa229200e26004228a56dc
:103e8400227200200021a061e161002262622021ef
:103e940062541b6800210b48984763685b68984725
:103ea400a0220021084801f0affe02232370200065
:103eb40010bd01204042fbe701204042f8e7c04624
:0c3ec400380b0020d12e0100b8070020b0
:020000040000fa
:020000040001f9
:103ed00010b50400124b10221a80124b1b78002bd5
:103ee0000cd1114b1a5d114b1a70002c0cd0104bd9
:103ef0000e4a1a600f4b01221a7010bd094b0022a6
:103f00001a7001f025fbece70b4b597810220420c6
:103f100000f04efd01220549022000f017faece7ff
:103f20001a0d0020890d0020b80c0020840d0020ff
:0c3f3000580d00208e0d0020400d0020d8
:020000040000fa
:020000040001f9
:103f3c0070b5050044690823c35602332bd023788f
:103f4c007f2b0dd86378db071bd563780122934355
:103f5c006370a178ec23e358db6ce069984710e0c0
:103f6c00ac23e15c4033e358db68e0699847227886
:103f7c007f2313402370e3780722934304221343d7
:103f8c00e3700823eb56002b05d16b68002b02d194
:083f9c00c4330022e25470bda1
:020000040000fa
:020000040001f9
:103fa40010b55378232b28d89b00164ce3589f4612
:103fb4000c6a002c18d04b6a00220021a04713e0a1
:103fc4000c6a002c10d04b6a00220121a0470be0a0
:103fd4000c6a002c08d04b6a02320221a04703e08d
:103fe4000868012100f087fb10bd0c6a002cfbd08f
:103ff4004b6a02320321a047f6e70868012100f06a
:084004007afbf1e71837010017
:020000040000fa
:020000040001f9
:10400c0010b50b2807d88000144b1b589f46144a38
:10401c0024230121d15410bd114b00221a73fae74d
:10402c000b78012bf7d10e4c22000e49002001f029
:10403c008dfc01232373eee7094b00221a733e21fa
:10404c005a54e8e7064b186801f0fbfbe3e7044c15
:10405c00206801f052fb00232373dce7604e010063
:08406c00c80a0020a532010082
:020000040000fa
:020000040001f9
:10407400144b01221a601a00d369002bfcd1114b96
:10408400802252005a601a00d369002bfcd10d4bd8
:104094003422da600c4a1a601a00d369002bfcd16e
:1040a400084b10225a831a00d369002bfcd1074b0a
:1040b400002221215a5401395a54024b83329a75f1
:1040c4007047c0460010004216001000680b002024
:020000040000fa
:020000040001f9
:1040d40010b5124b06225a6001f0d0f8fef722fe0a
:1040e40001f004fe01f018fdfff7c2ff01f030fb00
:1040f4000b490020fff7b4fe0a4ca0600a490020d7
:10410400fdf7e2ff206009490020fef7adfb606087
:1041140000f03cf800f07afd10bdc04600400041bc
:10412400c85d0100040d0020c057010020530100a8
:020000040000fa
:020000040001f9
:1041340058240100422401005a2401007224010081
:104144008824010058240100582401005824010047
:104154005824010058240100582401005824010067
:104164005824010058240100582401005824010057
:104174005824010058240100582401009c24010003
:0c418400c2240100e82401000e25010007
:020000040000fa
:020000040001f9
:1041900030b5134b00221a710121494219601a737c
:1041a00000245c733e3c9c733f340125dd73002585
:1041b0001d749a745a740820d8749961d961213198
:1041c0005c5401315c5402315a549a6201315a54a0
:1041d00002395a54034a1a63034a5a6330bdc0462f
:0c41e000c80a002000000020000200209f
:020000040000fa
:020000040001f9
:1041ec00f8b5144a3e23d35c012b00d0f8bd124b1a
:1041fc0001221a700f4a2023d35c002bf6d0130037
:10420c00202200219954213a9a618026b6001c0084
:10421c001d0018351f003300226b29000020fef70b
:10422c009ffaa3690133e1d13e23fb5c012bf2d051
:0c423c00dce7c046c80a0020ae0d0020e0
:020000040000fa
:020000040001f9
:1042480000230e4a10b513600d4a13600d4a13601f
:104258000d4a13600d4a13600d4a5362136101330e
:10426800936001f0b4fb01f0b2fb0a4c0a4b9c428c
:1042780000d310bd08cc9847f8e7c0466c0d002065
:10428800c0090020bc090020b4090020b80900209a
:0c429800c4090020bc000100c0000100af
:020000040000fa
:020000040001f9
:1042a40010b5134b5a6a002a19d0824205d183698a
:1042b400002b15d0002208e01a009369002b0ed0c1
:1042c4009842f9d18369002b05d08468996809194b
:1042d4009960002a06d0836993610023836110bd2d
:1042e4001a00f6e7024b5a6a92695a62f5e7c04629
:0442f400380b002063
:020000040000fa
:020000040001f9
:1042f8000e4a0f4b1b5c13700e4b4000c15c517093
:104308001b185b7893700c4bc15cd1701b185b78e1
:1043180013710a4bc15c51711b185b789371084b80
:10432800c15cd17118184378137270471c0d0020b6
:10433800c80c0020d40b0020f40b0020b40b002084
:04434800940b0020b2
:020000040000fa
:020000040001f9
:10434c0010b50d4b1b78002b00d010bd0b4b18700b
:10435c000123094803700a4803700a4803700a488d
:10436c0001600a4802700a4a0978506b0170538741
:10437c00fff758fce9e7c0468f0d0020370d0020f1
:10438c00970d0020980d0020580d00208e0d002058
:04439c00c80a00202b
:020000040000fa
:020000040001f9
:1043a00010b5104b1b78002b11d00f4b1b78002b36
:1043b0000ed10e4a137808210b4313700a4b0122c9
:1043c0001a700a4b19780a4b187800f0c9fb10bd17
:1043d000064a137808218b431370034b00221a708e
:1043e000efe7c0469a0d0020a50d0020a90d002082
:0443f000a80d0020f4
:020000040000fa
:020000040001f9
:1043f4000b4b19780b4a115459780b4a115499787c
:104404000a4a1154d9780a4a11541979094a11549b
:104414005979094a11549a79084b1a547047c0467d
:10442400280d0020d80c0020780c0020880c0020d7
:10443400680c0020a80c0020980c0020580c0020c8
:020000040000fa
:020000040001f9
:1044440070b5040008001500210000f02ff90028c1
:1044540019d0c368002b10d09b68002b07d0c4343c
:1044640063618088a0812a000e21984770bd2a00cc
:104474000e21200000f064fdf8e72a000e21200040
:1044840000f05efdf2e70121200000f034f9ede7d1
:020000040000fa
:020000040001f9
:1044940070b5114a136801331360104c2500503570
:1044a40008e0637a002b02d1606001336372103438
:1044b400ac4210d0e268002af9d0074b1868636850
:1044c400c31a26689e42f2d8237a002be9d000232f
:1044d40063609047ebe770bd5c0d00206409002029
:020000040000fa
:020000040001f9
:1044e400f0b5c64600b506783607760fad23c35c33
:1044f4009846078a4569002f16d0002405e0103538
:104504000134e4b2a3b2bb420ed22b783342f6d0cc
:104514006b784345f3d1eb68002bf0d05b68002b3c
:0e452400edd0a8889847eae704bc9046f0bda9
:020000040000fa
:020000040001f9
:02453200fee7a2
:020000040000fa
:020000040001f9
:1045340010b50f4b00229a61da610e4b83321a7662
:104544005a680d4c22405a601a00d369002bfcd1e2
:104554004b424b410333064c2022a35440000843f2
:10456400044b58621a00d369002bfcd110bdc0461d
:0c457400680b002000100042fffffbff5e
:020000040000fa
:020000040001f9
:104580004a1d0100921d0100a61d0100ba1d010077
:10459000ce1d0100e21d0100f61d01000a1e0100f2
:1045a0001a1e01002c1e0100401e01005a1d0100b0
:1045b000761d0100821d0100741d0100741d0100a3
:0c45c000741d0100741d0100541e010058
:020000040000fa
:020000040001f9
:1045cc0010b50300203b012b03d90b4b01221a70b1
:1045dc0010bd0a4b18700a4b1b78002b03d0064bee
:1045ec0000221a70f4e70749074801f0cff9044b91
:1045fc0001221a70f3e7c046540d00200a0e002069
:0c460c009b0d00205d5d0100515d010070
:020000040000fa
:020000040001f9
:1046180010b500f071ff00f083ff00f095ff00f087
:10462800a7ff00f051fd00f065fd00f079fd00f0f6
:10463800b3ff00f08bfd00f09ffd00f0b3fd00f02c
:10464800bfff00f0d1ff00f0e3ff00f0f5ff01f03d
:0c46580007f801f019f801f02bf810bd74
:020000040000fa
:020000040001f9
:1046640010b50c4b1b78002b08d10b4b00221a7091
:104674000a4b1b68002b00d0984710bd084b002242
:104684001a70084b1b68002bf7d0074a107898471c
:10469400f3e7c046a20d0020a40d0020640d002005
:0c46a400a30d0020600d0020280600205f
:020000040000fa
:020000040001f9
:1046b000f0b50d8a4a690c782407640fad23ce5cef
:1046c000002d18d0002305e010320133dbb299b27f
:1046d000a9420dd211782142f6d05178b142f3d1de
:1046e00091788142f0d8d77879188842ecda00e0e6
:0a46f00000221000f0bd0022fbe7dd
:020000040000fa
:020000040001f9
:1046fa0010b50c0001f001fa00281bd0c4230022d7
:10470a00c254012c0dd00023436683660200643232
:10471a00c469ec33c3589b6b802120009847002062
:10472a0010bdc2692833c3589b6a8021100098477c
:0a473a000020f5e775204042f2e789
:020000040000fa
:020000040001f9
:1047440010b5064c2378002b07d1054b002b02d063
:10475400044800e000bf0123237010bd140c0020a6
:104764000000000000000000044b10b5002b03d033
:104774000349044800e000bf10bdc046000000002b
:08478400180c002000000000e9
:020000040000fa
:020000040001f9
:10478c0010b50a4b98470a4b984700f031fb094b80
:10479c00ff229343084a9360084b9847084b98476d
:1047ac00084b9847fcf7c4f9fee7c0465357010085
:1047bc00535701000000010000ed00e049420100e8
:0847cc0053570100535701008f
:020000040000fa
:020000040001f9
:1047d40010b50f4b1b79002b02d0012b10d010bd4c
:1047e4000321002000f07ef9094b1860431cf6d029
:1047f4000022084900f07efd054b01221a71eee704
:10480400034b1b7b002bead0014b03221a71e6e712
:08481400c80a00200d4001005c
:020000040000fa
:020000040001f9
:10481c0070b5002802d001280dd070bd00f076fbd9
:10482c00040000f073fb050000f070fb2900200071
:10483c00fdf77cfaf1e700f069fb040000f066fb81
:10484c00050000f063fb020029002000fdf7eafde3
:06485c0000f05cfbe1e747
:020000040000fa
:020000040001f9
:1048620070b50d00140001f04cf9002818d00200b8
:10487200643245668466e823c35aa34205d006d94a
:10488200030064330121197401e002211174c46927
:10489200ec23c3589b6b802120009847002070bdf9
:0648a20075204042fbe717
:020000040000fa
:020000040001f9
:1048a80070b50c4b01221a8000f03afe0a4c0b4bf3
:1048b800220023cb23c203cb03c2094b597814220d
:1048c800042000f071f8142221000220fff73afdbd
:1048d80070bdc0461a0d0020300c0020440c00208a
:0448e800400d00205f
:020000040000fa
:020000040001f9
:1048ec0009024300020100c0320904000001020267
:1048fc000100052400200104240202052406000105
:10490c0005240100010705810310000209040100c0
:10491c00020a00000007050202400000070582029f
:04492c004000000047
:020000040000fa
:020000040001f9
:10493000431e033314d803041b0c042b13d8590152
:104940000a4a5218d169002281420ad15a01074904
:10495000515c0022002904d05b01044a9a1800e04f
:104960000022100070470022fbe7c046b807002075
:020000040000fa
:020000040001f9
:1049700010b5040000f00efa002817d02000fff751
:10498000d7ff041e10d04378002b08d100232375d5
:1049900063752370002400f0effe200010bdfff7c8
:1049a00081fc00236370f1e70124f4e70124f4e7bc
:020000040000fa
:020000040001f9
:1049b00070b50c4b55245d6b2c705c6b6070586b44
:1049c0008170596bca70120a596b0a7105225a8795
:1049d000fff72ef9044b00221a70044b01321a70b3
:1049e00070bdc046c80a00208f0d0020af0d00200a
:020000040000fa
:020000040001f9
:1049f00030b5b423c0588378c5782d021d4315d037
:104a0000002307e08478147004781b199bb2001906
:104a10009d4209d94478042cf4d0052cf4d1847833
:104a20008c42f1d1012000e0002030bd0020fce7e5
:020000040000fa
:020000040001f9
:104a300000230b4a13700b4a13700b4a13700b4b75
:104a4000074908480a78002a09d10278002a06d1c5
:104a5000013b9bb2002bf5d1034b01321a7070471a
:104a60009d0d00209c0d0020990d0020e9fd000007
:020000040000fa
:020000040001f9
:104a700070b5050001f0e6f80024002d0fdb0a49af
:104a80000a681f232b40da400134144001229a4067
:104a9000130080228b50bff34f8fbff36f8f01f055
:0c4aa00047f8200070bdc04600e100e0b7
:020000040000fa
:020000040001f9
:104aac0010b50a4b01221a8000f024fd084c094b6a
:104abc001b882380084b597802220420fff772ffd1
:104acc00022221000220fff73bfc10bd1a0d002032
:0c4adc00900d00207c0d0020400d0020fb
:020000040000fa
:020000040001f9
:104ae800002813d10c4b1b7a5bb2022b11d10a4a56
:104af800dc33d35c002b02d0012040420be01000d5
:104b08000133de228354013a835404e001204042f9
:0c4b180001e001204042704734050020fd
:020000040000fa
:020000040001f9
:104b240070b50b4c002525700a4c0d0a2570617078
:104b3400002b07d00021084d545c6c540131ccb2d9
:104b4400a342f9d89a1c80b2024900f007f970bd5b
:0c4b5400a20d0020f0060020f206002058
:020000040000fa
:020000040001f9
:104b600010b50c000c4914230b704870022227204a
:104b700000f0f6f800f098fb0028fbd10649152359
:104b80000b704c700222273000f0eaf800f08cfb2a
:0c4b90000028fbd110bdc046700d0020b5
:020000040000fa
:020000040001f9
:104b9c0010b50d4900230b704b700222272000f03a
:104bac00d9f800f07bfb0028fbd1074901230b70df
:104bbc000222273000f0cef800f070fb0028fbd169
:0c4bcc000021fff7c7ff10bd740d002092
:020000040000fa
:020000040001f9
:104bd8004b005918094b0a019a1842644a1c1201e1
:104be8009a188264023109015918c164044b03619f
:104bf800044b436100238371c3717047080b002085
:084c0800480a0020880a002080
:020000040000fa
:020000040001f9
:104c1000bff35f8f62b60b4ac120800013581b029e
:104c20001b0ac02109060b43135080231360043074
:104c300013581b021b0a0b43135080231b011360e4
:084c40007047c04600e100e0ee
:020000040000fa
:020000040001f9
:104c480070b50c4d20242d570024002d01d02000d4
:104c580070bd084ca080e360049b6361a160226181
:104c68000023a37023702122a3540021fff75efcc8
:084c78000124ece7680b0020a9
:020000040000fa
:020000040001f9
:104c800010b5094c094b1b782370094b01221a807f
:104c9000084b59780420fff78bfe012221000220e7
:104ca000fff754fb10bdc046850d00200a0e002002
:084cb0001a0d0020400d002048
:020000040000fa
:020000040001f9
:104cb80070b5002800d070bd0a4c2568a11d2800d9
:104cc80000f0b0fd21000c31280000f0abfd210000
:104cd8001431280000f0a6fd21001a31280000f048
:084ce800a1fde8e7040a002029
:020000040000fa
:020000040001f9
:104cf00010b50b4b00225a70f820023209494001ce
:104d0000fef75aff002802d0054b01225a70054bce
:104d10005b789b0600d410bd00f0c0fefbe7c046e8
:084d2000540d00207c0d002061
:020000040000fa
:020000040001f9
:104d280010b52020fff74efcfef74dfe0122074983
:104d38000020fef701ff064c207023780122054968
:104d48000120fef7f9fe2070237810bd9f0d00208a
:084d5800a00d0020a10d0020b8
:020000040000fa
:020000040001f9
:104d600010b50b4c2023e4560023002c01d0180072
:104d700010bd074b9880dc605c6199601a619c7083
:104d80001c7021229c540021fff7d4fb0123eee785
:044d9000680b00208c
:020000040000fa
:020000040001f9
:104d940010b50b4a2023d35c0120002b04d1283307
:104da400d35c0020012b00d010bd14002733002257
:104db400e25463689b6998472123e0540120f3e798
:044dc400380b002088
:020000040000fa
:020000040001f9
:104dc80034034d006900630072006f0063006800df
:104dd80069007000200054006500630068006e00e0
:104de8006f006c006f0067007900200049006e00ba
:044df80063002e0026
:020000040000fa
:020000040001f9
:104dfc0010b50a480168002903d14368002b00d183
:104e0c0010bd04008368064a9bb20c349b009b586f
:104e1c0042682000984780002018ebe7ec06010060
:044e2c00e45b010042
:020000040000fa
:020000040001f9
:104e300010b5084b1b78002b08d0074b074a517c54
:104e40001970917c5970d27c9a7010bd00f06cfb87
:104e5000f3e7c0468d0d0020940d0020440c002087
:020000040000fa
:020000040001f9
:104e600022400100224001002440010022400100b4
:104e70002240010022400100224001001a400100ae
:104e8000504001005a4001002c4001004440010004
:020000040000fa
:020000040001f9
:104e90000f230b400022022b0dd8421c0dd01033e3
:104ea0009b001b185b6849b20911082211405b186e
:0e4eb000d879073a0240100070470022fbe755
:020000040000fa
:020000040001f9
:024ebe00fee70d
:020000040000fa
:020000040001f9
:104ec00010b500f0bffe074b07221a601b68db031a
:104ed00005d5054a51688023db040b43536000f07d
:0c4ee00027fe10bd10e000e000ed00e037
:020000040000fa
:020000040001f9
:104eec0070b5084c6568084b1b68fff7cdfaa368d2
:104efc000133a3602368002b03d0024b1b682800ee
:0c4f0c00984770bdf80c002010e000e099
:020000040000fa
:020000040001f9
:104f1800084a1378dbb20849c85c13780133dbb25e
:104f280013701378dbb2a02b00d070471300002257
:0c4f38001a70fae78a0d002058080020cb
:020000040000fa
:020000040001f9
:104f440070b50d001100e023c4580300c4335c6144
:104f5400028b9a81dd23c35c012b00d070bd002c31
:0c4f6400fcd0e333c2582800a047f7e758
:020000040000fa
:020000040001f9
:104f70002a034d0054004300480032003100320043
:104f80003000200048006f007300740020004400cf
:0c4f900072006900760065007200c046e7
:020000040000fa
:020000040001f9
:104f9c00d05b010001000000dc5d0100000000009e
:104fac00000000000000000003000000445d010050
:0c4fbc00000000000000000000000000e9
:020000040000fa
:020000040001f9
:104fc80070b5094c2600503602e01034b44209d0be
:104fd800637a002bf9d0e368002bf6d098470023ba
:0c4fe8006372f2e770bdc046640900204f
:020000040000fa
:020000040001f9
:104ff40010b5074b00225a70023206490648fef7e4
:10500400d9fd002802d0024b01225a7010bdc046bf
:0c501400540d0020460d00200821000073
:020000040000fa
:020000040001f9
:1050200010b5074b00225a70023206490648fef7b7
:10503000c3fd002802d0024b01225a7010bdc046a9
:0c504000540d0020760d0020102100000f
:020000040000fa
:020000040001f9
:10504c0010b5074b00225a70023206490648fef78b
:10505c00adfd002802d0024b01225a7010bdc04693
:0c506c00540d00207e0d002008200000e4
:020000040000fa
:020000040001f9
:1050780010b5074b00225a70023206490648fef75f
:1050880097fd002802d0024b01225a7010bdc0467d
:0c509800540d0020800d002010200000ae
:020000040000fa
:020000040001f9
:1050a40010b5074b00225a70023206490648fef733
:1050b40081fd002802d0024b01225a7010bdc04667
:0c50c400540d0020820d00201820000078
:020000040000fa
:020000040001f9
:1050d00010b5074b00225a70023206490648fef707
:1050e0002ffd002802d0024b01225a7010bdc0468d
:0c50f000540d0020460d00200821000097
:020000040000fa
:020000040001f9
:1050fc0010b5074b00225a70023206490648fef7db
:10510c0019fd002802d0024b01225a7010bdc04676
:0c511c00540d0020760d00201021000032
:020000040000fa
:020000040001f9
:1051280010b5074b00225a70023206490648fef7ae
:1051380003fd002802d0024b01225a7010bdc04660
:0c514800540d0020720d00201821000002
:020000040000fa
:020000040001f9
:1051540010b5074b00225a70023206490648fef782
:10516400edfc002802d0024b01225a7010bdc0464b
:0c517400540d00207e0d002008200000db
:020000040000fa
:020000040001f9
:1051800010b5074b00225a70023206490648fef756
:10519000d7fc002802d0024b01225a7010bdc04635
:0c51a000540d0020800d002010200000a5
:020000040000fa
:020000040001f9
:1051ac0010b5074b00225a70023206490648fef72a
:1051bc00c1fc002802d0024b01225a7010bdc0461f
:0c51cc00540d0020820d0020182000006f
:020000040000fa
:020000040001f9
:1051d80030b583b00c00074901250d700649250a32
:1051e8000d704c7080b2009313000222fff728fd67
:0c51f80003b030bda20d0020f006002026
:020000040000fa
:020000040001f9
:1052040070b506000d00002804d00468002c05d1f8
:105214000023336070bda469002cf9d02572e368c3
:0a522400002bf8d020009847f5e7b2
:020000040000fa
:020000040001f9
:10522e00f8b514001d0000f066fc00280ad0069b9d
:10523e009bb2c769ec228258166a2a0021003800f8
:0a524e00b047f8bd7c204042fbe7aa
:020000040000fa
:020000040001f9
:10525800002809d1074b5b78002b08d1054801339a
:10526800437000238363704701204042fbe701201d
:085278004042f8e700040020a9
:020000040000fa
:020000040001f9
:10528000084b012248215a5401315a540f315a54c3
:1052900001315a54333226399954083233319954f2
:0852a0007047c04600440041c4
:020000040000fa
:020000040001f9
:1052a800074a2023d3560120002b07d1054b588be2
:1052b800302318401038431e9841c0b27047c0468a
:0852c800680b002000100042f9
:020000040000fa
:020000040001f9
:1052d00024240100242401002e230100ee230100d8
:1052e000f8230100242401002424010002240100e9
:0852f0000c2401001a24010046
:020000040000fa
:020000040001f9
:1052f80070b50d00140000f001fc011e09d0e02378
:10530800c5500433c450c0690833cb589b68014a60
:08531800984770bd112301004c
:020000040000fa
:020000040001f9
:10532000000000000000000000000000000000007d
:1053300001000000a85c01009c4f01000200000079
:0853400000000000b00d002088
:020000040000fa
:020000040001f9
